:020000040800F2
:10000000800A0020AD0200084F1E0008311C0008C5
:100010004D1E0008BF040008E72100080000000092
:10002000000000000000000000000000531E000857
:10003000D505000800000000511E0008551E0008EC
:10004000C7020008C7020008C7020008C70200086C
:10005000C7020008C7020008C7020008C70200085C
:10006000C7020008C7020008C7020008C70200084C
:10007000C7020008C7020008C7020008C70200083C
:1000800025050008C7020008C7020008C7020008CB
:10009000C7020008C7020008C7020008C70200081C
:1000A000C7020008C7020008C7020008C70200080C
:1000B000091F0008C7020008C7020008C70200089D
:1000C000C7020008C7020008C7020008C7020008EC
:1000D000C7020008C7020008C7020008C7020008DC
:1000E000D7050008C7020008C7020008C7020008B9
:1000F000C7020008C7020008C7020008C7020008BC
:10010000C7020008C7020008C7020008C7020008AB
:10011000C7020008C7020008C7020008C70200089B
:10012000C7020008C7020008C7020008C70200088B
:10013000C70200080000000000000000C70200081D
:10014000C7020008C7020008C7020008C70200086B
:10015000C7020008C7020008C7020008C70200085B
:10016000C7020008C7020008C7020008C70200084B
:10017000C7020008C7020008C7020008000000000C
:1001800000000000C702000800000000000000009E
:10019000C70200080000000000000000C7020008BD
:1001A000000000000000000000000000C70200087E
:1001B000C7020008C7020008C7020008C7020008FB
:1001C000C702000800F002F800F060F80AA090E80A
:1001D000000C82448344AAF10107DA4501D100F002
:1001E00055F8AFF2090EBAE80F0013F0010F18BF6F
:1001F000FB1A43F001031847A0350000C03500008A
:1002000010F8013B0A4413F0030408BF10F8014B37
:100210001D1108BF10F8015B641E05D010F8016BBA
:10022000641E01F8016BF9D1002D15D010F8014BB7
:1002300003F00C030C2BA1EB04040ABF10F8013BE4
:10024000A4EB8314A4EB032405F1010314F8016B60
:100250005B1E01F8016BF9D5914238BF10F8013BE4
:10026000D1D370470023002400250026103A28BF70
:1002700078C1FBD8520728BF30C148BF0B60704718
:100280001FB503F0E5F91FBD10B510BD00F0E2F891
:100290001146FFF7F5FF02F095FC00F000F903B4FA
:1002A000FFF7F2FF03BC00F003F9000009488047A4
:1002B00009480047FEE7FEE7FEE7FEE7FEE7FEE748
:1002C000FEE7FEE7FEE7FEE704480549054A064B60
:1002D00070470000F91E0008C501000880040020D6
:1002E000800A0020800600208006002053EA020CCD
:1002F00000F069802DE9F04B4FF00006002B1FBF86
:10030000B3FA83F503FA05F424FA05F65E4012BF4A
:100310001643B2FA82F502FA05F4C5F120051EBFB4
:1003200022FA05FC44EA0C04203556EA044C4FEA54
:10033000144418BF641C4FF000084FF000099042AD
:1003400071EB030C39D3002919BFB1FA81F701FA17
:1003500007F6B0FA80F700FA07F6C7F120071EBFCC
:1003600020FA07FC46EA0C062037B6FBF4FCA7EBA4
:100370000507103F07F01F0BCBF120060CFA0BFB13
:100380002CFA06F644BFB3460026202FA4BF5E46D3
:100390004FF0000B5BEA060C08BF4FF0010B19EBA6
:1003A0000B09ABFB027C48EB0608C01B06FB02CC2A
:1003B0000BFB03CC71EB0C01C1E70B460246414637
:1003C0004846BDE8F08B13B54FF000004FF0000138
:1003D000AFF30080BDE81C4070474FF0000200B54D
:1003E000134694469646203922BFA0E80C50A0E858
:1003F0000C50B1F12001BFF4F7AF090728BFA0E806
:100400000C5048BF0CC05DF804EB890028BF40F8D1
:10041000042B08BF704748BF20F8022B11F0804F13
:1004200018BF00F8012B704770477047704710B530
:1004300000F008F8006810BD10B5044600F002F89E
:10044000046010BD004870471C040020004870473D
:100450001C0400207546FFF7F9FFAE46050069460B
:10046000534620F00700854618B020B5FFF72CFF53
:10047000BDE820404FF000064FF000074FF00008A5
:100480004FF0000B21F00701AC46ACE8C009ACE826
:10049000C009ACE8C009ACE8C0098D46704710B58A
:1004A0000446AFF300802046BDE81040FFF7F7BEDA
:1004B00001491820ABBEFEE7260002007047FEE7A8
:1004C00010B5846B204600F0B2F80120207110BDF9
:1004D00010B5846B204600F084F80120207110BD17
:1004E00010B5846B206940F004002061204600F0C4
:1004F000A0F80120207110BD10B5846B206940F078
:1005000004002061204600F06EF80120207110BD2B
:1005100010B5806B00F08CF810BD10B5806B00F04A
:1005200061F810BD014800F0E1B90000BC030020F3
:1005300001681823CAB2103AB2FBF3F2054B6FF30D
:100540000901032A9B5CC36500D9091D8165084622
:10055000704700005A36000810B5014600208B692C
:100560008A6A4FF0C07453B1B3F5005F15D072B111
:10057000012A0CD0022A0AD0032A09D104E01AB1B8
:10058000012A06D0022A03D1C96AC90100D5012077
:1005900010BDC96AA142FAD010BD002AF7D0012AC5
:1005A000F2D0022AF3D0032AF3D010BD30B504688C
:1005B000256825F480252560046863608368402BE6
:1005C000036803D099600068C26030BD9A6000681B
:1005D000C16030BD70474FF4005000F0F9BA72B6F8
:1005E000FEE770477047704770B54379012B1CD008
:1005F000012646710223037105682B6802F010047E
:1006000040F6FE72A2409343D1E900210A43A24082
:100610001A432A6001680A68C023A3409A430A600B
:10062000067100214171084670BD022070BD7047FF
:100630007047704770B5040003D02079002510B1D1
:1006400005E0012070BD6571204600F007F802202A
:100650002071256101202071002070BD70B586B029
:10066000054614216846FFF7B8FE1F4928688842EE
:1006700037D11E480026016841F000510160006832
:1006800000F00050059019481038016841F0010150
:1006900001600068694600F001000590102000909C
:1006A0000320CDE90106124800F09EFA124C1148D1
:1006B00020604FF0606060604020C4E902060001E5
:1006C0002061800060618000A0618011C4E907069C
:1006D0002046666200F0DAF908B1FFF780FFAC60EF
:1006E000A56306B070BD00000074004040380240B1
:1006F0000000024088600240BC0300202DE9F04168
:1007000004460D461746617900220698012920D03B
:100710000126667102212171F5B1D4F80CC035496A
:10072000CCF83C10D4F80CC03349CCF84010D4F8C5
:100730000CC03249CCF84C102168D1F800C04CF004
:10074000805CC1F800C090B3042834D0082837D1A9
:1007500034E00220BDE8F081D4F808C02849CCF884
:100760003C10D4F808C02749CCF84010D4F808C091
:100770002549CCF84C102168D1F800C04CF4805CBD
:10078000C1F800C020B1042805D0082808D105E030
:100790002268083204E022680C3201E0226810323C
:1007A0002068016841F400510160A0680EE0FFE795
:1007B0002268143204E02268183201E022681C32F8
:1007C0002068016841F000510160E068394600F09E
:1007D000C7F90021617120B1216941F00401216153
:1007E000B8E721680A6805F010039E4032430A60AA
:1007F000B0E70000D10400081B050008F904000858
:10080000C104000811050008E104000870B50446A1
:100810000068036801F010024FF480559540AB4327
:10082000036020680368012505FA02F29343036020
:1008300051B1E06800F010F82068016821F0005123
:1008400001602571002070BDA06800F005F82068E7
:10085000016821F40051F3E72DE9F0410446876D6A
:1008600000F0BAFA064694F835000025022806D0B2
:100870008020606584F834500120BDE8F081206854
:10088000016821F0160101602068416921F08001B2
:100890004161206C08B9A06C20B12068016821F08A
:1008A000080101602068016821F0010101600CE08D
:1008B00000F092FA801B052807D9202060650320EC
:1008C00084F8350084F83450D7E720680068C00702
:1008D000EED194F85C103F208840B860012084F885
:1008E000350084F834500020C7E700002DE9F843B4
:1008F00004464FF00009CDF8009063484FF41651BC
:10090000A56D0068B0FBF1F72E6894F85C10082024
:1009100000FA01F131420FD021680A6852070BD565
:100920000A6822F004020A6094F85C108840A8600B
:10093000606D40F00100606594F85C104FF00108B4
:1009400008FA01F0304208D021684969090604D547
:10095000A860606D40F00200606594F85C100420AF
:100960008840304208D021680968890704D5A8600A
:10097000606D40F00400606594F85C1010208840C1
:10098000304218D021680968090714D5A86020688A
:100990000168490304D50068000308D5A16C07E08D
:1009A0000168C90503D4016821F008010160216CC8
:1009B00009B12046884794F85C10202088403042D6
:1009C00031D021680968C9062DD5A86094F8350092
:1009D00005282068016806D0490347D50068000350
:1009E0001DD4616C1CE021F0160101602068416992
:1009F00021F080014161206C08B9A06C20B1206811
:100A0000016821F00801016094F85C103F208840E3
:100A1000A86084F8358084F83490216D1FE0E16B84
:100A200009B120468847606D00282BD0606DC00753
:100A300014D0052084F835002068016821F00101F8
:100A400001600098401C0090B84203D820680068FC
:100A5000C007F6D184F8358084F83490E16C002921
:100A600010D001B02046BDE8F04308470168C90531
:100A7000D5D4016821F01001016084F8358084F834
:100A80003490CCE7BDE8F883140200202DE9F04152
:100A9000044600F0A1F906465CB1022084F8350056
:100AA000002584F834502068016821F001010160BC
:100AB0000DE00120BDE8F08100F08EF9801B0528D3
:100AC00005D920206065032084F83500F2E720680E
:100AD0000068C007F0D12268116820480140D4E9BD
:100AE00001031843D4E903363343184363691843B9
:100AF000A3691843E3691843236A18430843616AEA
:100B0000042903D1D4E90B1319430843106020686A
:100B10004069666A20F0070130460E430127042829
:100B20000CD1A06A0643E06A40B12046FFF714FDED
:100B300020B14020606584F83570BAE720684661CE
:100B40002046FFF7F5FC94F85C203F21914081603E
:100B5000656584F835700020ACE700003F8010F038
:100B60002DE9F0410446866D90F8340000250128F7
:100B70000DD0012084F8340094F835700020012F46
:100B800007D084F8340002252846BDE8F081022011
:100B9000FBE7022784F8357060652046FFF706FD05
:100BA00094F85C103F208840B0602068016841F0F4
:100BB00016010160206C20B12068016841F0080135
:100BC00001602068016841F001010160DCE77047C5
:100BD000044910B50A68024202D00860FFF7F7FF27
:100BE00010BD0000143C01402DE9F84FDFF8ACA126
:100BF0000022012403254FF00F090AF1040BAAF18A
:100C0000040E00BF0B6804FA02F63340B3426ED103
:100C10000F7907F00307012F01D0022F16D1876843
:100C20004FEA420805FA08FC27EA0C07D1F80CC085
:100C30000CFA08FC4CEA070CC0F808C04768B74338
:100C40000E79C6F3001696403E4346600E79F64391
:100C5000B6070AD0C6684FEA420C05FA0CF7BE4345
:100C60008F6807FA0CF73743C7600E7906F0030662
:100C7000022E10D1D60800EB8608D8F8206057075E
:100C80004FEAD76C09FA0CF7BE430F6907FA0CF765
:100C90003743C8F8207006684FEA420C05FA0CF793
:100CA000BE430F7907F0030707FA0CF737430760D5
:100CB0004E6816F4403F6BD0394E376847F4804792
:100CC0003760366822F0030706F480460096354EFA
:100CD00007EB060CDCF8086897074FEA177809FA63
:100CE00008F7BE43304FB84202D100271FE04FE063
:100CF0002E4FB84201D1012719E02D4FB84201D142
:100D0000022714E02B4FB84201D103270FE02A4FEE
:100D1000B84201D104270AE0284FB84201D1052783
:100D200005E0274FB84201D1062700E0072707FA60
:100D300008F73743CCF80878DAF800605746D1F85E
:100D400004C09E435FEACC2C00D51E433E60DBF816
:100D500000605F46D1F804C09E435FEA8C2C00D54A
:100D60001E433E60DEF800607746D1F804C09E4323
:100D70005FEA8C3C00D51E433E60084F083F3E684A
:100D8000D1F804C09E435FEACC3C00D51E433E60D0
:100D9000521C102AFFF436AFBDE8F88F083C014022
:100DA000443802400030014000000240000402408C
:100DB00000080240000C02400010024000140240F3
:100DC000001802400069084000D0012070470AB1B5
:100DD000816170470904FBE70148806870470000A3
:100DE000080200200248816802781144816070473F
:100DF000080200200B4810B5016841F40071016041
:100E0000016841F480610160016841F48071016012
:100E1000032000F071F8002000F006F800F024F83C
:100E2000002010BD003C024070B50D4D04464FF44B
:100E30007A712878B1FBF0F00A490968B1FBF0F04B
:100E400000F054FB48B9102C07D200222146501E56
:100E500000F032F800206C6070BD012070BD000011
:100E600008020020140200200B4882B0016841F4FF
:100E700080410160006800F4804000900648001F37
:100E8000016841F080510160006800F080500090DE
:100E9000072002B000F030B844380240002809DBD7
:100EA00000F01F02012191404009800000F1E02084
:100EB000C0F8001170470000F0B40E4B1B680C46E0
:100EC000C3F30223C3F10705042D00D90425191D1E
:100ED000072901D2002300E0DB1E012606FA05F1F6
:100EE000491E214099409E40761E16403143F0BC79
:100EF00001F092B90CED00E0064900F00702086825
:100F00004FF6FF03184040EA0220034A10430860EE
:100F1000704700000CED00E00000FA052DE9F843F1
:100F20001748016841F0805101600068154F00F0DA
:100F30008050012600903E64FFF74EFF05464FF4B7
:100F40007A78114C05E000BFFFF746FF401B404593
:100F50000DD86068C003F7D57E64FFF73DFF0546F6
:100F6000464607E0FFF738FF401BB04202D9032096
:100F7000BDE8F88360688003F4D50020F8E700003E
:100F80004038024000000E42007000402DE9F0475A
:100F90000E46050065D0DFF81481D8F80000F7B2DE
:100FA00000F00F00B04207D288F80070D8F80000B7
:100FB00000F00F00B04254D128683D4C810712D593
:100FC000400703D5206840F4E050206028780007EF
:100FD00003D5206840F4604020602068A96820F0B4
:100FE000F000084320602878C0072DD03049686899
:100FF0000839012812D0022813D0032811D009681B
:10100000890700292DDA216821F0030101432160BD
:10101000FFF7E2FE814641F2883A0EE00968890353
:10102000EFE709688901ECE7FFF7D6FEA0EB0901BD
:10103000514502D90320BDE8F0872068696800F0B7
:101040000C00B0EB810FEFD1D8F80010404601F052
:101050000F01B14207D90770006800F00F00B042DD
:1010600001D00120E7E72878400705D52068E96826
:1010700020F4E050084320602878000706D5206857
:10108000296920F4604040EAC100206000F018F8AF
:101090002168084AC1F30311515CC8400649086041
:1010A00006480068FFF7C0FE0020C4E7003C02408D
:1010B0000838024062360008140200200C020020AA
:1010C000224810B5006810F00C02214815D04110DC
:1010D000042A11D01D4C241F082A0FD00C2A0CD131
:1010E0002268236802F03F025B0221D52068C0F32A
:1010F0008810A0FB010120E0084610BD226823688B
:1011000002F03F025B0205D52068C0F38810A0FB07
:10111000010104E02168C1F38811A1FB0001002353
:10112000FFF7E4F82168C1F30141491C49000AE0D6
:101130002168C1F38811A1FB00010023FFF7D6F855
:101140002168C1F30271B0FBF1F010BD0838024014
:101150000024F4002DE9F84F04007DD0DFF878B3C7
:101160002078ABF10407C007A7F1040550D0DBF8E5
:1011700000105846C1F3810101290FD00168C1F365
:101180008101022902D13968490207D40068C0F3FD
:101190008100032809D13868400206D528688003F9
:1011A00036D560680028D8D032E06068B0F5803F5E
:1011B00010D0B0F5A02F286810D020F4803028601F
:1011C000286820F4802028606068A0B1FFF704FE42
:1011D00006460CE0286840F48030F4E740F48020B4
:1011E0002860F7E7FFF7F8FD801B642876D82868A9
:1011F0008003F7D50CE0FFF7EFFD064605E000BFE2
:10120000FFF7EAFD801B6428F0D828688003F7D434
:101210002078DFF8C89280074FF0000A44D5DBF849
:101220000010584611F00C0F0FD00168C1F3810176
:10123000022902D13968490207D50068C0F381004C
:1012400003280AD13868400207D42868800715D5DA
:10125000E068012800D111E03AE1E068B0B1012076
:10126000C9F80000FFF7B8FD064604E0FFF7B4FD3B
:10127000801B0228BAD828688007F7D5286821691A
:1012800020F0F80040EAC10028600DE0C9F800A095
:10129000FFF7A2FD064604E0FFF79EFD801B022833
:1012A0001CD828688007F7D42078000727D5DFF8F6
:1012B00028828B48616908F16C0881B101210160C5
:1012C000FFF78AFD064604E0FFF786FD801B022833
:1012D00004D8D8F800008007F6D510E089E0C0F8FF
:1012E00000A0FFF779FD064605E000BFFFF774FD9B
:1012F000801B02287DD8D8F800008007F6D420781B
:10130000400769D574484FF0000838300068C000C5
:101310000BD471483830016841F080510160006899
:101320004FF0010800F0805000906E4E3068C0050C
:1013300011D4306840F480703060FFF74DFD0090AC
:1013400006E000BFFFF748FD0099401A022850D878
:101350003068C005F6D5604EA068683601280FD009
:101360000528306810D020F001003060306820F08F
:1013700004003060A068B8B1FFF72EFD00900FE0C8
:10138000306840F00100F4E740F004003060F7E717
:10139000FFF722FD0099411A41F28830814264D85A
:1013A00030688007F4D50EE0FFF716FD009007E0E7
:1013B000FFF712FD0099411A41F28830814254D85A
:1013C00030688007F4D4B8F1000F05D042483830B7
:1013D000016821F080510160A069A8B3DBF800101A
:1013E000C1F38101022947D00228C9F860A005D0C5
:1013F00000E03AE0FFF7F0FC044639E0FFF7ECFCD0
:10140000064604E0FFF7E8FC801B02282DD8286878
:101410008001F7D4F4E907010843E168324A49083A
:1014200002EB0141A26841EA82110843217C40EAB3
:101430000160217D40EA017038600120C9F8600038
:10144000FFF7CAFC044606E044E000BFFFF7C4FC17
:10145000001B022809D828688001F7D53AE000BFB0
:10146000FFF7BAFC001B022802D90320BDE8F88F61
:1014700028688001F4D42DE00128F7D03868E269AB
:1014800000F48001914223D1226A00F03F01914291
:101490001ED147F6C071626A0140B1EB821F17D1BD
:1014A000A26A4FF0FF3300F4403103EB5202B1EB7C
:1014B000024F0DD194F82C2000F07061B1EB026F57
:1014C00006D194F8301000F0E040B0EB017F01D07D
:1014D0000120CBE70020C9E708380240000047425E
:1014E000800E4742007000400000FFFF10B5401E14
:1014F000B0F1807F01D3012010BD4FF0E024606186
:101500000F21601700F088FE0020A06107202061F5
:10151000002010BD7047704710B590F83C20012A9C
:1015200022D0012280F83C20CA688C6822F44072E4
:1015300022434C6822F4806222430C6822F4006249
:1015400022430C6922F4805222434C6922F4005257
:101550002243C969002322F480420A4301684A6495
:1015600080F83C30002010BD022010BD70B590F80E
:101570003C20012A32D0012480F83C40022280F82D
:101580003D2003685A689D6822F070060A6832435D
:101590005A60134B02689A4214D0B2F1804F11D0B6
:1015A000104B9A420ED0104B9A420BD00F4B9A42DE
:1015B00008D00F4B9A4205D00E4B9A4202D00E4BE8
:1015C0009A4204D1496825F080031943916080F85C
:1015D0003D40002180F83C10084670BD022070BDDF
:1015E000000001400004004000080040000C0040E2
:1015F00000040140004001400018004010B5040004
:1016000003D094F83D0010B107E0012010BD002088
:1016100084F83C00204600F01FF8022084F83D00CA
:10162000211D206800F076FC012084F8460084F833
:101630003E0084F83F0084F8400084F8410084F8BC
:10164000420084F8430084F8440084F8450084F89C
:101650003D00002010BD000008B500681149884217
:1016600009D11148016841F001010160006800F0F2
:101670000100009008BDB0F1804FFBD10A48001F67
:10168000016841F0010101600068002200F00100E2
:10169000009011461C20FFF70FFCBDE808401C20FD
:1016A000FFF7FCBB000001404438024090F83D10B9
:1016B000012901D001207047022180F83D10006807
:1016C0001149884214D0B0F1804F11D00F4988429F
:1016D0000ED00F4988420BD00E49884208D00E49DF
:1016E000884205D00D49884202D00D49884204D174
:1016F000816801F00701062903D0016841F001016A
:10170000016000207047000000000140000400401C
:1017100000080040000C004000040140004001406F
:101720000018004070B5044690F83C0000250128E0
:1017300017D0012684F83C60022084F83D00206820
:10174000826822F0770222F47F4282600868502883
:1017500038D00DDC20284FD005DC90B3102811D1F3
:101760004AE0022070BD302846D040280AD13BE034
:1017700060282FD070280DD0B0F5805F03D0B0F571
:10178000005F12D0012584F83D60002084F83C0001
:10179000284670BDCB68D1E90121206800F02BFC00
:1017A0002068816841F0770109E0CB68D1E9012127
:1017B000206800F020FC2068816841F4804181604D
:1017C000E1E719E0CA684968206800F0E9FC5021A7
:1017D000206806E0CA684968206800F0F2FC6021D1
:1017E000206800F012FCCEE7CA684968206800F063
:1017F000D7FC40212068F4E7226801461046F0E754
:10180000704770B50446006801694FF00005C94390
:10181000890715D4C168C943890711D4E91E01613C
:1018200001202077206880698007204602D0FFF7DA
:10183000E7FF04E000F0C2F8204600F054F92577F5
:1018400020680169C943490717D4C168C9434907DA
:1018500013D46FF0040101610220207720688069B1
:1018600010F4407F204602D0FFF7CAFF04E000F0EA
:10187000A5F8204600F037F9257720680169C943AB
:10188000090716D4C168C943090712D46FF00801CB
:101890000161042020772068C0698007204602D0BB
:1018A000FFF7AEFF04E000F089F8204600F01BF9D6
:1018B000257720680169C943C90617D4C168C9439F
:1018C000C90613D46FF01001016108202077206849
:1018D000C06910F4407F204602D0FFF791FF04E07A
:1018E00000F06CF8204600F0FEF8257720680169CA
:1018F000C943C90708D1C168C943C90704D1891EB2
:101900000161204600F092F920680169C943090687
:1019100009D4C168C943090605D46FF0800101618B
:101920002046FFF7F7FD20680169C943490609D43D
:10193000C168C943490605D46FF0400101612046E2
:1019400000F075F920680169C94389060BD4C168A4
:10195000C943890607D46FF0200101612046BDE824
:101960007040FFF7D8BD70BD10B586B00446142195
:101970006846FEF732FD0E492068884216D10D48B0
:101980000021026842F001020260006800F00100DC
:1019900005904FF4806000900220CDE90101012004
:1019A000CDE9031069460448FFF71EF906B010BDE3
:1019B000000001403038024000000240704770B51E
:1019C000044690F83C0000260D4601280FD0012067
:1019D00084F83C006AB1042A1DD0082A2FD00C2AB2
:1019E0003FD00126002084F83C00304670BD022024
:1019F00070BD206800F012FB2068816941F0080189
:101A000081612068816921F0040181612068816918
:101A10002A69114311E0206800F030FB20688169D9
:101A200041F4006181612068816921F480618161F4
:101A3000206881692A6941EA02218161D2E7206830
:101A400000F052FB2068C16941F00801C1612068C3
:101A5000C16921F00401C1612068C1692A6911438B
:101A600011E0206800F074FB2068C16941F4006156
:101A7000C1612068C16921F48061C1612068C169C8
:101A80002A6941EA0221C161ACE710B5040003D024
:101A900094F83D0010B107E0012010BD002084F84B
:101AA0003C00204600F01EF8022084F83D00211D75
:101AB000206800F02FFA012084F8460084F83E00E8
:101AC00084F83F0084F8400084F8410084F8420024
:101AD00084F8430084F8440084F8450084F83D000D
:101AE000002010BD7047704710B50446022249B16E
:101AF00004290ED0082913D094F84100012816D0EB
:101B0000012010BD94F83E000128F9D184F83E2050
:101B10000FE094F83F000128F2D184F83F2008E05C
:101B200094F840000128EBD184F8402001E084F8CB
:101B300041200122206800F051FA16492068164A17
:101B4000884201D0904203D1436C43F40043436484
:101B50002068884213D0B0F1804F10D00F498842DE
:101B60000DD00F4988420AD00E49884207D09042D2
:101B700005D00D49884202D00C49884204D18168C1
:101B800001F00701062903D0016841F0010101605D
:101B9000002010BD0000014000040140000400408E
:101BA00000080040000C00400040014000180040C8
:101BB00030B504460D460068002200F00FFA194BBC
:101BC00041F2111120688A10984202D0164B9842B7
:101BD00009D1036A0B4206D1036A134203D1436C55
:101BE00023F4004343642068036A0B4206D1016A70
:101BF000114203D1016821F00101016001203DB1D2
:101C0000042D08D0082D09D084F84100002030BDF3
:101C100084F83E00FAE784F83F00F7E784F84000D4
:101C2000F4E70000000001400004014070477047E5
:101C3000FEE70000F0B587B014216846FEF7CDFB43
:101C400026480024016841F004010160016801F0A8
:101C500004010591016841F080010160016801F013
:101C600080010591016841F001010160016801F006
:101C700001010591016841F0020101600068184FFF
:101C800000F002004FF4807605900022314638467D
:101C9000FFF79DF8700100904FF40410CDE90104A6
:101CA00069461048FEF7A0FFF02001258DE83100BD
:101CB00069463846FEF798FF0096CDE9015469461B
:101CC00038460394FEF790FF002211462820FFF7C4
:101CD000F3F82820FFF7E2F807B0F0BD30380240F3
:101CE000000402400008024010B596B000240F9492
:101CF00010941194129413941C2108A81494FEF7C4
:101D00006CFB20216846FEF768FB284826490160E5
:101D10001121C0E901146321C0E903144461846105
:101D2000FFF76CFC08B172B6FEE74FF480500F90DD
:101D30000FA91E48FFF7F6FC08B172B6FEE71B4874
:101D4000FFF7A3FE08B172B6FEE7139413A9174874
:101D50001494FFF70BFC08B172B6FEE76020089000
:101D60003220CDE909040B940C940D94082208A9A3
:101D70000E480E94FFF723FE08B172B6FEE70094FA
:101D80004FF40050CDE90440029401940394694655
:101D900006480794FFF7C0FB08B172B6FEE7034898
:101DA000FFF7E2FD16B010BD000001402C0200203C
:101DB00030B587B000242048009401940294039425
:101DC0000494059440681D498001B1FBF0F001F0D6
:101DD00037FA1B4D41EC100B4FF08040C5E9000471
:101DE0009FED181B51EC100B53EC112BAC6001F064
:101DF00045FB01F0E1F9C5E903042846AC61FFF7B2
:101E0000FDFB08B172B6FEE74FF4805000906946C2
:101E10000B48FFF787FC08B172B6FEE72020CDE93A
:101E2000040404A90648FFF7A1FB002801D072B6FC
:101E3000FEE707B030BD000000000020804A5D05CD
:101E400074020020000000000000F03FFEE7FEE703
:101E500070477047FEF7C6BF30B593B0342168466F
:101E6000FEF7BBFA14210DA8FEF7B7FA20480025AB
:101E7000016841F080510160006800F080501290CC
:101E80001C48016841F4404101600068022400F4EC
:101E90004040129001200090000401908001CDE9A3
:101EA000064004200890B420CDE909040B9468464C
:101EB0000C94FFF74FF908B172B6FEE7FFF72EF862
:101EC00008B172B6FEE70DA90F2081E831004FF48A
:101ED000A05010904FF48050119005210DA8FFF7ED
:101EE00055F8002801D072B6FEE713B030BD0000EF
:101EF00040380240007000400248016841F470011F
:101F00000160704788ED00E00148FFF77ABC0000EF
:101F100074020020F0B50268254C264D264E274F4E
:101F2000274B4FF0804CA04209D0604507D0A84213
:101F300005D0B04203D0B84201D0984204D122F07B
:101F4000700E4A6842EA0E02A0421BD0604519D0CA
:101F5000A84217D0B04215D0B84213D0984211D041
:101F6000184DA8420ED0184DA8420BD0174DA842CC
:101F700008D0174DA84205D0164DA84202D0164DE4
:101F8000A84203D122F44075CA682A434D6922F061
:101F900080022A4302608A68C2620A688262A042A2
:101FA00001D0984201D10969016301214161F0BD6D
:101FB000000001400004004000080040000C004008
:101FC000000401400040014000440140004801403D
:101FD00000180040001C00400020004010B501F037
:101FE0001F030121046A99408C430462016A9A40EC
:101FF0001143016210BD10B5846842EA032224F443
:102000007F440A432243826010BD826822F070023E
:102010000A4342F00701816070470000F0B5026A90
:1020200022F001020262036A42688469124E24F0BF
:1020300073050C682C4323F002058B682B430D4D70
:10204000A84201D0B04205D123F00807CB683B433A
:1020500023F00403A84201D0B04205D14D6922F417
:10206000407215438A692A4342608461496841632A
:102070000362F0BD0000014000040140F0B5026AB7
:1020800022F010020262026A436884690D6824F437
:10209000E64444EA05248D6822F0200242EA051253
:1020A0000F4D104EA84201D0B04206D1CF6822F0A9
:1020B000800242EA071222F04002A84201D0B04258
:1020C00007D14D6923F4406343EA85038D6943EAF0
:1020D000850343608461496881630262F0BD00004A
:1020E0000000014000040140F0B5026A22F4807251
:1020F0000262026A4368C46922F4007224F0730524
:102100000C68124E2C438D6842EA05220E4DA842FF
:1021100001D0B04206D1CF6822F4006242EA072221
:1021200022F48062A84201D0B04207D14D6923F465
:10213000405343EA05138D6943EA05134360C461C4
:102140004968C1630262F0BD000001400004014023
:1021500030B5026A22F480520262046A4268C3699E
:102160000D6823F4E64343EA05238D6824F4005404
:1021700044EA0534084DA84202D0084DA84204D1D3
:102180004D6922F4804242EA85124260C361496887
:102190000164046230BD0000000001400004014001
:1021A00010B5036A046A24F001040462846924F00F
:1021B000F00444EA021423F00A020A438461026232
:1021C00010BD10B5036A23F0100303628369046A2B
:1021D00023F4704343EA023224F0A00343EA0111DE
:1021E0008261016210BDFEE703B4019841000098CE
:1021F00050EAC12018BF04204A0D18BF40F001006A
:1022000040F2FF72B2EB515F08BF40F002000128BC
:1022100008BF052002B070470907090E002804DB3B
:1022200000F1E02080F80014704700F00F0000F18A
:10223000E02080F8141D704710B52F499FED2C1B2E
:102240002DED020B84B0059820F000408842DCBFE1
:1022500000209DED040B32DD2849884209D1049805
:1022600040B94FF00100FEF7E7F800F03DFC06B082
:1022700010BD05DB9DED040B00F02AFC06B010BD7F
:1022800068469DED040B00F03BF810F0030011D000
:10229000012818D09DED021B9DED000B02281AD0DD
:1022A00000F04AFA51EC100B00F04AFD06B041EC88
:1022B000100B10BD9DED021B9DED000B012000F0E9
:1022C0006FFB06B010BD9DED021B9DED000B00F0F5
:1022D00033FA06B010BD012000F062FB51EC100B88
:1022E00000F02EFD06B041EC100B10BD0000000008
:1022F0000000000000000000FB21E93F0000F07F2B
:102300002DE9F14F04462DED020B2DED088B8AB01F
:102310009FEDE70B80ED020B139EE74826F000458A
:1023200085420ADC9DED120B002084ED000B0AB003
:10233000BDEC088B03B0BDE8F08FE0489FEDE0AB4B
:102340009FEDE1BBA84247DDE14F9FEDE39B9FED91
:10235000E48B9DED120B53EC1A2B51EC100B002E5D
:102360001CDD01F08BF841EC100BBD4208D053ECA2
:102370001B2B51EC100B01F081F8C4E900010BE0BC
:1023800053EC192B51EC100B01F078F853EC182B8F
:1023900001F074F8C4E900010120C8E700F0DCFC9A
:1023A00041EC100BBD4208D053EC1B2B51EC100B31
:1023B00000F0D2FCC4E900010BE053EC192B51EC06
:1023C000100B00F0C9FC53EC182B00F0C5FCC4E95D
:1023D00000014FF0FF30AAE7C348A84279DB9DED2A
:1023E000120B51EC100B00F09FFB41EC180B9FED12
:1023F000C00B53EC102B00F037FF9FEDBF1B53ECCD
:10240000112B00F0A9FC00F0A7FE074600F001FF29
:1024100041EC190B53EC1A2B00F026FF53EC182B50
:1024200001F020F841EC180B53EC1B2B51EC190B6D
:1024300000F01AFFDFF8C8A241EC100B4FEA155864
:102440000125FA4453EC102B51EC180B01F016F84F
:10245000032DC4E900013DD0C1F30A5005EB45113D
:10246000A8EB00001139814234DA0AEB051BB0EE0B
:1024700048AA9BED000BF0EE68AA53EC102B51EC30
:10248000190B00F0F1FE41EC1B0B51EC1A0B53EC55
:102490001B2B00F0F3FF41EC180B51EC1A0B53EC23
:1024A000182B00F0EBFF53EC1B2B00F0E7FF9BED2C
:1024B000020B41EC1A0B53EC102B51EC190B00F0F2
:1024C000D3FE53EC1A2B00F0D9FF41EC100B6D1C1E
:1024D000B8E70EE0002EA8BF3846BFF628AF94ED4F
:1024E000000B51EC100B00F02BFCC4E9000178420A
:1024F0001DE7C6F3130040F4801EC6F30A50A0F295
:10250000F530471100F01F05C5F12000DDF848B097
:1025100008900020069007900520EC467949002D90
:1025200007EB0002794408BF51F8221009D051F896
:10253000223001EB8201AB404A68089922FA01F18E
:102540001943A1FB0E26A1FB0B131A449A4234BF78
:102550000123002303EB06080CEB8003D3E901A65B
:102560000E448E4234BF0121002192448A4411B1AD
:10257000924502D903E0924501D2012100E00021F9
:10258000C3E901A641444CF82010011EA0F101004E
:10259000C4DC029800F10050850F0298DDE9036762
:1025A0008000DDF8148000F034FE41EC1A0B304658
:1025B00000F046FE9FED541B53EC112B00F054FE2F
:1025C00041EC1B0B384600F03BFE9FED511B53ECDA
:1025D000112B00F049FE41EC180B404600F030FE94
:1025E0009FED4D1B53EC112B00F03EFE41EC190BFF
:1025F00051EC180B53EC192B00F0AEFB53EC1B2BDA
:1026000000F0AAFB53EC1A2B00F0A6FBCDE9080161
:10261000002008909DED080B53EC1A2B51EC100B89
:1026200000F02CFF53EC1B2B00F028FF53EC182B71
:1026300000F024FF53EC192B00F014FF9FED381B22
:1026400053EC112B00F010FE9FED370B41EC180BF3
:1026500053EC102B9DED080B51EC100B00F004FE19
:1026600053EC182B00F078FB9FED310B41EC180B6D
:1026700053EC102B9DED080B51EC100B00F0F4FD0A
:1026800053EC182B00F068FB41EC100B139810F082
:10269000004F06D06D4251EC100B00F051FB41ECA5
:1026A000100B284684ED000B41E6000000000000FE
:1026B0000000000000000000FB21E93F7CD902403F
:1026C00000004054FB21F93F3163621A61B4D03DF0
:1026D000FB21F93F000000000000601A61B4D03D0A
:1026E0007370032E8A19A33BFB21394100000000BF
:1026F00083C8C96D305FE43F000000000000E03F88
:1027000062120000B0110000000000000000103E46
:10271000000000000000103C000000000000103A23
:10272000182D4454FB21F93D3326A611460B113CCC
:1027300000000054FB21F93D10B52DED040B2DEDEB
:10274000088B82B0B0EE419AF0EE619A0B9820F0BF
:1027500000449FED4BABB4F1795F11DA9DED0A0BAC
:1027600051EC100B00F0F8FC002801BFB0EE4A0A53
:10277000F0EE6A0A02B0BDEC088B04BF04B010BDD5
:102780009DED0A0B53EC102B51EC100B00F06CFD7F
:1027900041EC180B3C480621B0EE480AF0EE680AFE
:1027A000784400F081F853EC182B51EC100B00F03A
:1027B0005BFD9DED0A0B41EC1B0B53EC192B51EC0F
:1027C000100B00F051FD41EC190B53EC1B2B51EC9D
:1027D000180B00F049FD53EC192B00F04FFE9FED54
:1027E0002C0B41EC190B53EC102B51EC180B00F097
:1027F0003BFD41EC100B2848844210DA53EC192BB6
:1028000051EC100B00F03AFE53EC1A2B00F02AFEAC
:1028100041EC100B02B0BDEC088B04B010BD1F489A
:10282000A042BCBF9FED1E1B8DED001B06DBA4F577
:1028300000100190002000909DED001B51EC100B4A
:1028400053EC112B00F01AFE9DED000B41EC180B20
:1028500053EC102B51EC1A0B00F010FE41EC1A0B4C
:1028600053EC192B51EC180B00F008FE53EC1A2B0B
:1028700000F0F8FD41EC100BCCE700000000000078
:10288000000000000000F03FD40E00000000000037
:10289000000000000000E03F3333D33F0000E93F79
:1028A000000000000000D23F70B504462DED028B01
:1028B0004D1E00EBC500B0EE408AF0EE608A90ED50
:1028C000000B35F0060017D053EC182B51EC100B11
:1028D00000F0CAFC41EC100B6D1E04EBC50090ED3E
:1028E000001B51EC100B53EC112B00F035FA41ECAE
:1028F000100B35F00600E7D1022D36D0042D1CD088
:10290000062D1CBFBDEC028B70BD53EC182B51EC97
:10291000100B00F0A9FC94ED0A1B53EC112B00F0F6
:102920001BFA53EC182B00F09FFC94ED081B53ECA2
:10293000112B00F011FA41EC100B53EC182B51EC59
:10294000100B00F091FC94ED061B53EC112B00F0E2
:1029500003FA53EC182B00F087FC94ED040B53ECB6
:10296000102B00F0F9F941EC100B53EC182B51EC43
:10297000100B00F079FC94ED021B53EC112B00F0CE
:10298000EBF953EC182B00F06FFC94ED001B53ECAB
:10299000112B00F0E1F9BDEC028B41EC100B70BD86
:1029A00031B504462DED040B2DED0A8BB0EE41BA86
:1029B000F0EE61BA0B989DED0A0B20F00040B0F1EB
:1029C000795F0DDA51EC100BFFF70EFC042808BFFD
:1029D00000F09AF89DED0A0BBDEC0A8B05B030BDF6
:1029E00053EC102B51EC100B00F03EFC41EC180B9B
:1029F0009DED0A0B53EC182B51EC100B00F034FC3E
:102A000041EC190B2C48B0EE480AF0EE680A05219B
:102A10007844FFF749FF9FED2ACBB0EE40AAF0EED5
:102A200060AA9CB353EC1C2B51EC190B00F01CFC5E
:102A300041EC1C0B53EC1A2B51EC190B00F014FC5D
:102A40009FED210B41EC190B53EC102B51EC1B0BA0
:102A500000F00AFC53EC192B00F010FD53EC182B7E
:102A600000F002FC53EC1B2B00F008FD53EC1C2B78
:102A700000F004FD9DED0A1B53EC112B00F0F2FC5D
:102A8000BDEC0A8B05B041EC100B30BDFFE753ECF9
:102A90001A2B51EC180B00F0E7FB53EC1C2B00F049
:102AA0005BF953EC192B00F0DFFB9DED0A1B53EC97
:102AB000112B00F051F9E3E75C0D0000000000006D
:102AC000495555555555C5BF000000000000E03F71
:102AD00010B553EC102B51EC100B00F03DF941EC0C
:102AE000100B10BD000000009FED050B10B553EC5E
:102AF000102B51EC100B00F0D7F941EC100B10BD6E
:102B000000000000000000009FED050B10B553EC25
:102B1000102B51EC100B00F0A7FB41EC100B10BD7B
:102B2000000000000000001082B0CDE9000121F09B
:102B3000004001909DED000B02B051EC100B70476E
:102B400070B51F4D00242DED088B9FED158B9FED6B
:102B5000169B9FED17AB9FED18BB600000F059FB73
:102B600053EC182B00F080FB53EC192B00F07CFB8E
:102B700041EC100BFFF760FB53EC1A2B51EC100BE0
:102B800000F0EAF853EC1B2B00F06EFB00F014FB96
:102B900045F82400641C402CDFDBBDEC088B70BDC5
:102BA0004AD8124DFB210940000000000000903F70
:102BB000000000000000F03F000000000000A04006
:102BC000BC0200201CB5FEF715F9FFF745F9FFF729
:102BD00031F81B480024016841F4001101600068CD
:102BE000224600F40010009021461020FEF764F900
:102BF0001020FEF753F9144900941248019408601C
:102C00000846FDF717FD08B172B6FEE72420CDE9AE
:102C10000004002269460C48FDF7E6FC08B172B6D4
:102C2000FEE7FFF7C5F8FFF75FF807485C30FEF7EF
:102C30003DFDFFF785FF00BF00F008F8FCE700004E
:102C4000303802400074004018020020F8B5384DBA
:102C500000224FF480712846FEF7B9F8102128466B
:102C6000FEF7B0F8334E002480B910212846FEF755
:102C7000A9F80028F9D0307870B12F4A40230021FC
:102C8000A2F1A4000094FDF739FD347020212846FC
:102C9000FEF798F840B114E027480021A438FDF76A
:102CA000B5FD01203070F1E720212846FEF78AF8B3
:102CB0000028F9D0307850B11F4808219038FEF72D
:102CC00077FF40212846FEF77DF858B119E01A48F1
:102CD0000021A438FDF79AFD174808219038FEF727
:102CE00003FFEEE740212846FEF76CF80028F9D0F4
:102CF00011484023114A0021A4380094FDF7FEFC3E
:102D0000347080212846FEF75DF800280FD140215D
:102D10002846FEF757F80028F9D0064A064840230F
:102D200008320021A4380094FDF7E8FC3470F8BDA7
:102D30000004024000000020BC0200200801002026
:102D400081F00041704780F00040704721F0004161
:102D5000704720F00040704710B591EA030F48BF5C
:102D600083F0004300F19283841A71EB030C05D2C7
:102D7000121943EB0C03001B61EB0C01DFF824E19B
:102D80004FEA1154A4EB135C1EEA430F18BF9EEAEE
:102D9000445F73D023EA0E03DCF1200E21EA0451D4
:102DA00043F4801332D322FA0CFE10EB0E0023FA08
:102DB0000CFE41EB0E01CCF1200E03FA0EFE10EBDF
:102DC0000E0051F10001B1F5801FCCF1200E32D27E
:102DD00001EB045112FA0EF2BDE8104058BF7047E3
:102DE000401C38BF5FEA420218BF7047002814BF7A
:102DF00020F0010041F100014FEA410313F5001FEB
:102E000038BF7047A1F1C04100F026BB012A43EB57
:102E10000302ACF1200CDCF11F0E32BF4FF0000EAC
:102E200023FA0CF310EB030041EB0451B4EB115FF8
:102E3000D0D0A1EB045101F5801149085FEA3000C0
:102E400001EB04510ED350F1000038BF12FA0EFE10
:102E500008D1BDE81040C9E7401C38BF5FEA420214
:102E6000CAD1C3E7BDE810404FEA410313F5001F84
:102E700038BF7047A1F1C04100F0EEBA9EEA445F4E
:102E800008D011EA5E0FBDE8104004BF01F0004118
:102E900000207047BDE8104070B500F08FFA00BF09
:102EA00064FBBE3E0000E0FF2DE9C04130B4DFF816
:102EB000A0C23CEA111418BF3CEA131400F0EC80E5
:102EC00081EA03051CEA111444EAD57418BF1CEA10
:102ED000131500F0C780A4EB05044FF0004545EA48
:102EE000C12145EAC32341EA505143EA525304F158
:102EF0007F74994204F500344FEAC0204FEAC222A1
:102F000008BF904200F09C804FEA13650FF2401614
:102F1000765D4FEA134506FB05F7C7F1807706FBA0
:102F200007F74FEAD737A7FB03687642C8F5803822
:102F3000A7FB06CE38BFA8F1010807FB08E64FF053
:102F4000000EA6FB028CE6FB03CEDCF1000CCEF1FA
:102F5000004E38BFAEF1010EA6FB0C584FF0000733
:102F60004FF00005E6FB0E87A1FB08C6A0FB07CECD
:102F700016EB0E0645F10005E1FB076515F1E04E85
:102F80007EBFA4F580345FEA46066D4116F18007E6
:102F900045F100054FEA17274FEA066647EA05673D
:102FA000A6F1DE46B6F1805F4FEA15251FD93846F7
:102FB00024F0010C05EBC471BCF1FE6F01EB0C11A8
:102FC00002D8F0BCBDE8008124425CBF01F5801E40
:102FD0009EEAC47F02D4F0BCBDE80081244238D40C
:102FE000F0BCA1F1C041BDE8004100F035BA4FEAA4
:102FF000D22242EA43524FEAD323A7FB02864FEA8A
:10300000D02040EA415007FB03661EEA0E0F4FEA4C
:10301000D12105FB026658BFA6EB0056B6EB005661
:103020004FEA520E4EEAC37E18EB0E0E56EB530ECD
:10303000BDD518EB02085E417F1C55F10005B6E7CF
:103040004FF480154FF000074FF000064FF00008D6
:10305000ADE7F0BC4FF0000001F1C04101F00041CC
:10306000BDE8008111EA0C1F0CEA131500D00CE03A
:1030700013EA0C1F00F025804FF00000F0BC81EA3D
:10308000030101F00041BDE80081F0BCBDE8004152
:1030900081EA030100F0E0B9F0BCBDE8004170B581
:1030A00000F08CF9097EFC3E00F007B881EA0301CC
:1030B0004FF0000001F00041704781EA030100F089
:1030C000CBB9F0BCBDE800414FF00000214970478A
:1030D000FFFDFBF9F7F5F4F2F0EEEDEBE9E8E6E4DD
:1030E000E3E1E0DEDDDBDAD8D7D5D4D3D1D0CFCD64
:1030F000CCCBCAC8C7C6C5C4C2C1C0BFBEBDBCBB9D
:10310000BAB9B8B7B6B5B4B3B2B1B0AFAEADACAB97
:10311000AAA9A8A8A7A6A5A4A3A3A2A1A09F9F9E71
:103120009D9C9C9B9A999998979796959594939323
:10313000929191908F8F8E8E8D8C8C8B8B8A8989BA
:10314000888887878685858484838382828181803D
:103150000000FF070000F87F4FEA41034FEA535396
:10316000A3F58063D3F11E03C8BFD3F1210C0CDD9E
:103170004FF0004242EAC12242EA505232FA03FCC6
:103180008CEAE17CACEBE1707047102BC4BF0020EF
:10319000704703F5787CBCF1FF3F04D06FF000422C
:1031A00082EA2100704770B500F008F94992248046
:1031B00000207047F2E700004FEA1153A3F5806347
:1031C000D3F11E03A8BFD3F1200C08DB4FF000425F
:1031D00042EAC12252EA505232FA03F070470942E1
:1031E0000BD4102BC4BF0020704703F5787CBCF1D2
:1031F000FF3F05D04FF0FF3070474FF000007047A1
:1032000070B500F0DBF800BF4992248000207047C1
:10321000F0E710F0004248BF4042B0FA80F310FAE5
:1032200003F10AD0C3F11D0303F580634FEA415057
:1032300002EB035202EBD12170474FF000007047C0
:10324000B0FA80F310FA03F10AD0C3F11D0303F5BD
:1032500080634FEA41504FEA035202EBD12170479D
:103260004FF0000070470000DFF848C170B51CEA5D
:10327000111E1EBF1CEA13159EEA0C0F95EA0C0FD7
:1032800000F06F8081EA030423EA4C134EEAD47EF7
:1032900021EA4C1141F4801143F48013AE44A1FBA8
:1032A000024CA0FB0365AEF17F7E361955EB0C0591
:1032B000A1FB034C4CF10003A0FB021C16EB0C0617
:1032C000654153F10003094218BF46F0010613F4AB
:1032D000007F0BD14FEA03314FEA0530340341EA56
:1032E000155140EA16506FF003020AE04FEAC3217D
:1032F0004FEAC520F40241EA555140EA56506FF0BA
:10330000020202EB2E4201EB025585EACE710AD091
:103310005FEA440C18BF24F0004450F1000041F172
:10332000000120EAD47040F2FE7C624500D270BDFC
:10333000A84214BF4FF080444FF04044002E08BF15
:103340000024BEF1806FA8BFA1F1C041BDE870406C
:1033500080F282804FF0000001F1C04101F0004195
:1033600070479EEA0C0F0CEA131518BF95EA0C0F74
:1033700006D04FF0000081EA030E0EF0004170BD50
:1033800000F01CF88900013E00F007B800F009B811
:103390004FEA430C5FEA5C5C08D081EA030100F06D
:1033A0005BB84FEA410C5FEA5C5CF6D14FF000007D
:1033B000014970470000FF070000F87F0EF1020E80
:1033C0002EF0030E5EF8046B364205D4012A43EB5F
:1033D000030515F5001F12D8012841EB010C1CF55F
:1033E000001F0CD80ED14FEAD17C15F5001F0CEB55
:1033F0004C0C0CF1020C08BF4CEBD37C04E04FF0FA
:10340000080C01E04FEAD37C0CEB4C0526FA05F6DC
:1034100006F00706B6F1040C06D20EEB860CBDE8EA
:1034200070404CF0010C6047DFE80CF0090B020221
:103430004FF000414FF00000A1F5002170BD19468A
:103440001046012851EB010418BFD4F5001484BFC5
:10345000002001F0004170BD0808A0F500114FEAFE
:103460003101704791EA030F10B581F000413FF53B
:103470007BAC83F0004300F009B8000010B591EA7E
:10348000030F48BF83F000433FF56EAC841A71EB25
:10349000030C07D212198CF0004C43EB0C03001BF9
:1034A00061EB0C01DFF8A4E14FEA1154A4EB135CCB
:1034B0001EEA430F18BF9EEA445F00F0B08023EA83
:1034C0006E03524221EA0451C3EB6E0338BF5B1E08
:1034D000DCF1200E25D322FA0CFE10EB0E0043FA8D
:1034E0000CFE41EB0E01CCF1200E03FA0EFE10EBA8
:1034F0000E0051F10001CCF1200E29D412FA0EF287
:1035000001EB0451BDE8104058BF7047401C1CBF80
:10351000B2F1004F704700280CBF491C20F0010099
:10352000704712EB020E43EB030218BF4FF0010E7F
:103530004EEA4202ACF1200CDCF11E0E54D943FAE3
:103540000CFE10EB0E0051F1FF31CCF11E0ED5D563
:103550000EF1010E12FA0EFE404141EB010101EBAA
:10356000445C5FEA5C5C10D910EBDE7001EB045147
:1035700038BFBEF1004FBDE8104018BF70470028AB
:103580000CBF491C20F00100704730D24FEAD42C08
:1035900011F5001124F400641BD0B1FA81F20B3A4A
:1035A000A41AA41ED2F12003914030FA03F3194368
:1035B000904001EBCC71002C01EB0451BDE81040B0
:1035C000A8BF704701F1C0414FF0000001F0004179
:1035D0007047B0FA80F310FA03F100D110BDE41A7D
:1035E000173C4805C90AE4E701EB045110BD491036
:1035F00001EB0451BDE810404FEA300002E04FF00B
:10360000000170474A0008BF0042F8D0B2F5001F21
:1036100028BF704701F000414FF0000070479EEA5C
:10362000445F07D011EA5E0FBDE8104004BF0021DF
:1036300000207047BDE8104070B5FFF7BFFE00BF27
:1036400040DFF63E83F00041104670470000E0FF87
:103650004FF04070E1EE100A7047000610160006A9
:10366000101600000000000000000102030406071D
:1036700008090000000000004C5555555555A53F60
:103680007751C1166CC156BF9015CB19A001FA3EF7
:10369000AD529C804F7E92BEC4B1B4BD9EEE213E21
:1036A000D43888BEE9FAA8BD00004054FB21F93F98
:1036B0003163621A61B4D03D0000601A61B4D03D3C
:1036C0007370032E8A19A33B0000002E8A19A33BB6
:1036D000C14920259A837B390000000000000000CA
:1036E0006E83F9A22915444ED15727FCC0DD34F56D
:1036F000999562DB4190433CAB6351FE61C5BBDEF3
:103700003A6E24B7E0D24D42EA2E49061C92D10906
:103710001CEB1DFE3EA729B1F53582E88444BB2E83
:1037200026709CE9417E5FB439D69139F4395383D0
:103730008B5F849C3B28F9BDFF97F81F0F9805DE2F
:103740008B112FEF1F6D0A5ACF7E366DB709CB272D
:10375000663F464F2DEA5F9EC7BA27757BF1E5EBC2
:10376000F739073DEA92528AB15FFB6B085D8D1F06
:10377000A6F810111111813FD561C119A0012ABF0E
:103780007DFEB157E31DC73EEB9C2B8AE6E55ABE92
:103790007CD5CF5A3AD9E53DB83700080000002063
:1037A0001802000000020008C038000818020020BB
:1037B00068080000640200081200011006B036001C
:1037C000007F0812FF0C137F01081104137F020809
:1037D0001104137F03081104137F04081104137FDD
:1037E00005081104137F06081104137F070811044C
:1037F000137F08081104137F09081104137F0A08B6
:103800001104137F0B081104137F0C081104137F9C
:103810000D081104137F0E081104137F0F08520FB7
:1038200008520E18520D28520C38520B48520A58A2
:103830005209685208785207885206985205A852D1
:1038400004B85203C85202D85201E84200F82504D5
:10385000523F0C56BF08523F2456BF10523F3C56B1
:10386000BF18523F5456BF20523F6C56BF28523F9C
:103870008456BF30523F9C56BF38523FB456BF406B
:10388000523FCC56BF48523FE456BF50523FFC56C1
:10389000BF58563F1456BF60563F2C56BF68563F20
:1038A0004456BF70563F5C56BF78563F7456BF8033
:1038B00011E35700100C0005000024F40000000084
:04000005080001C529
:00000001FF
